{
  "_format": "hh-sol-artifact-1",
  "contractName": "Web3RSVP",
  "sourceName": "contracts/Web3RSVP.sol",
  "abi": [
    {
      "anonymous": false,
      "inputs": [
        {
          "indexed": false,
          "internalType": "bytes32",
          "name": "eventID",
          "type": "bytes32"
        },
        {
          "indexed": false,
          "internalType": "address",
          "name": "attendeeAddress",
          "type": "address"
        }
      ],
      "name": "ConfirmedAttendee",
      "type": "event"
    },
    {
      "anonymous": false,
      "inputs": [
        {
          "indexed": false,
          "internalType": "bytes32",
          "name": "eventID",
          "type": "bytes32"
        }
      ],
      "name": "DepositsPaidOut",
      "type": "event"
    },
    {
      "anonymous": false,
      "inputs": [
        {
          "indexed": false,
          "internalType": "bytes32",
          "name": "eventID",
          "type": "bytes32"
        },
        {
          "indexed": false,
          "internalType": "address",
          "name": "creatorAddress",
          "type": "address"
        },
        {
          "indexed": false,
          "internalType": "uint256",
          "name": "eventTimestamp",
          "type": "uint256"
        },
        {
          "indexed": false,
          "internalType": "uint256",
          "name": "maxCapacity",
          "type": "uint256"
        },
        {
          "indexed": false,
          "internalType": "uint256",
          "name": "deposit",
          "type": "uint256"
        },
        {
          "indexed": false,
          "internalType": "string",
          "name": "eventDataCID",
          "type": "string"
        }
      ],
      "name": "NewEventCreated",
      "type": "event"
    },
    {
      "anonymous": false,
      "inputs": [
        {
          "indexed": false,
          "internalType": "bytes32",
          "name": "eventID",
          "type": "bytes32"
        },
        {
          "indexed": false,
          "internalType": "address",
          "name": "attendeeAddress",
          "type": "address"
        }
      ],
      "name": "NewRSVP",
      "type": "event"
    },
    {
      "inputs": [
        {
          "internalType": "bytes32",
          "name": "eventId",
          "type": "bytes32"
        }
      ],
      "name": "confirmAllAttendees",
      "outputs": [],
      "stateMutability": "nonpayable",
      "type": "function"
    },
    {
      "inputs": [
        {
          "internalType": "bytes32",
          "name": "eventId",
          "type": "bytes32"
        },
        {
          "internalType": "address",
          "name": "attendee",
          "type": "address"
        }
      ],
      "name": "confirmAttendee",
      "outputs": [],
      "stateMutability": "nonpayable",
      "type": "function"
    },
    {
      "inputs": [
        {
          "internalType": "uint256",
          "name": "eventTimestamp",
          "type": "uint256"
        },
        {
          "internalType": "uint256",
          "name": "deposit",
          "type": "uint256"
        },
        {
          "internalType": "uint256",
          "name": "maxCapacity",
          "type": "uint256"
        },
        {
          "internalType": "string",
          "name": "eventDataCID",
          "type": "string"
        }
      ],
      "name": "createNewEvent",
      "outputs": [],
      "stateMutability": "nonpayable",
      "type": "function"
    },
    {
      "inputs": [
        {
          "internalType": "bytes32",
          "name": "eventId",
          "type": "bytes32"
        }
      ],
      "name": "createNewRSVP",
      "outputs": [],
      "stateMutability": "payable",
      "type": "function"
    },
    {
      "inputs": [
        {
          "internalType": "bytes32",
          "name": "",
          "type": "bytes32"
        }
      ],
      "name": "idToEvent",
      "outputs": [
        {
          "internalType": "bytes32",
          "name": "eventId",
          "type": "bytes32"
        },
        {
          "internalType": "string",
          "name": "eventDataCID",
          "type": "string"
        },
        {
          "internalType": "address",
          "name": "eventOwner",
          "type": "address"
        },
        {
          "internalType": "uint256",
          "name": "eventTimestamp",
          "type": "uint256"
        },
        {
          "internalType": "uint256",
          "name": "deposit",
          "type": "uint256"
        },
        {
          "internalType": "uint256",
          "name": "maxCapacity",
          "type": "uint256"
        },
        {
          "internalType": "bool",
          "name": "paidOut",
          "type": "bool"
        }
      ],
      "stateMutability": "view",
      "type": "function"
    },
    {
      "inputs": [
        {
          "internalType": "bytes32",
          "name": "eventId",
          "type": "bytes32"
        }
      ],
      "name": "withdrawUnclaimedDeposits",
      "outputs": [],
      "stateMutability": "nonpayable",
      "type": "function"
    }
  ],
  "bytecode": "0x608060405234801561001057600080fd5b506122ba806100206000396000f3fe6080604052600436106100545760003560e01c806292098c1461005957806317f0165a146100825780636dcdf2cd1461009e57806379747571146100c7578063909ef021146100f0578063acdbe01214610133575b600080fd5b34801561006557600080fd5b50610080600480360381019061007b91906114f7565b61015c565b005b61009c600480360381019061009791906115b5565b610378565b005b3480156100aa57600080fd5b506100c560048036038101906100c09190611640565b6105e5565b005b3480156100d357600080fd5b506100ee60048036038101906100e991906115b5565b610a4b565b005b3480156100fc57600080fd5b50610117600480360381019061011291906115b5565b610efd565b60405161012a9796959493929190611761565b60405180910390f35b34801561013f57600080fd5b5061015a600480360381019061015591906115b5565b610ff4565b005b60003330878787604051602001610177959493929190611840565b60405160208183030381529060405280519060200120905060608060405180610120016040528084815260200186868080601f016020809104026020016040519081016040528093929190818152602001838380828437600081840152601f19601f8201169050808301925050505050505081526020013373ffffffffffffffffffffffffffffffffffffffff16815260200189815260200188815260200187815260200183815260200182815260200160001515815250600080858152602001908152602001600020600082015181600001556020820151816001019080519060200190610267929190611325565b5060408201518160020160006101000a81548173ffffffffffffffffffffffffffffffffffffffff021916908373ffffffffffffffffffffffffffffffffffffffff160217905550606082015181600301556080820151816004015560a0820151816005015560c08201518160060190805190602001906102e99291906113ab565b5060e08201518160070190805190602001906103069291906113ab565b506101008201518160080160006101000a81548160ff0219169083151502179055509050507f2553138c3f9c9008f266dbdbe9fc64f5b71e098d06ef714a190a65a8b9fc6bf383338a898b8a8a60405161036697969594939291906118db565b60405180910390a15050505050505050565b60008060008381526020019081526020016000209050348160040154146103d4576040517f08c379a00000000000000000000000000000000000000000000000000000000081526004016103cb90611991565b60405180910390fd5b428160030154101561041b576040517f08c379a000000000000000000000000000000000000000000000000000000000815260040161041290611a23565b60405180910390fd5b8060060180549050816005015411610468576040517f08c379a000000000000000000000000000000000000000000000000000000000815260040161045f90611a8f565b60405180910390fd5b60005b81600601805490508160ff161015610542573373ffffffffffffffffffffffffffffffffffffffff16826006018260ff16815481106104ad576104ac611aaf565b5b9060005260206000200160009054906101000a900473ffffffffffffffffffffffffffffffffffffffff1673ffffffffffffffffffffffffffffffffffffffff16141561052f576040517f08c379a000000000000000000000000000000000000000000000000000000000815260040161052690611b50565b60405180910390fd5b808061053a90611bac565b91505061046b565b5080600601339080600181540180825580915050600190039060005260206000200160009091909190916101000a81548173ffffffffffffffffffffffffffffffffffffffff021916908373ffffffffffffffffffffffffffffffffffffffff1602179055507fb79f4240bbdd272d98e02a5db7f0cf156e5fc000961c517670a26eeeec63ed9082336040516105d9929190611bd6565b60405180910390a15050565b6000806000848152602001908152602001600020905060008160020160009054906101000a900473ffffffffffffffffffffffffffffffffffffffff1673ffffffffffffffffffffffffffffffffffffffff163373ffffffffffffffffffffffffffffffffffffffff161461068f576040517f08c379a000000000000000000000000000000000000000000000000000000000815260040161068690611c71565b60405180910390fd5b60005b82600601805490508160ff161015610733578373ffffffffffffffffffffffffffffffffffffffff16836006018260ff16815481106106d4576106d3611aaf565b5b9060005260206000200160009054906101000a900473ffffffffffffffffffffffffffffffffffffffff1673ffffffffffffffffffffffffffffffffffffffff16141561072057600191505b808061072b90611bac565b915050610692565b5080610774576040517f08c379a000000000000000000000000000000000000000000000000000000000815260040161076b90611d03565b60405180910390fd5b60005b82600701805490508160ff16101561084e578373ffffffffffffffffffffffffffffffffffffffff16836007018260ff16815481106107b9576107b8611aaf565b5b9060005260206000200160009054906101000a900473ffffffffffffffffffffffffffffffffffffffff1673ffffffffffffffffffffffffffffffffffffffff16141561083b576040517f08c379a000000000000000000000000000000000000000000000000000000000815260040161083290611d95565b60405180910390fd5b808061084690611bac565b915050610777565b50600015158260080160009054906101000a900460ff161515146108a7576040517f08c379a000000000000000000000000000000000000000000000000000000000815260040161089e90611e01565b60405180910390fd5b81600701839080600181540180825580915050600190039060005260206000200160009091909190916101000a81548173ffffffffffffffffffffffffffffffffffffffff021916908373ffffffffffffffffffffffffffffffffffffffff16021790555060008373ffffffffffffffffffffffffffffffffffffffff16836004015460405161093690611e52565b60006040518083038185875af1925050503d8060008114610973576040519150601f19603f3d011682016040523d82523d6000602084013e610978565b606091505b50509050806109cb578260070180548061099557610994611e67565b5b6001900381819060005260206000200160006101000a81549073ffffffffffffffffffffffffffffffffffffffff021916905590555b80610a0b576040517f08c379a0000000000000000000000000000000000000000000000000000000008152600401610a0290611ee2565b60405180910390fd5b7ff8d1583a733d83bdd3ef5464129d0a95a36d62b382d31c6d0467a61f4264381b8585604051610a3c929190611bd6565b60405180910390a15050505050565b60008060008381526020019081526020016000206040518061012001604052908160008201548152602001600182018054610a8590611f31565b80601f0160208091040260200160405190810160405280929190818152602001828054610ab190611f31565b8015610afe5780601f10610ad357610100808354040283529160200191610afe565b820191906000526020600020905b815481529060010190602001808311610ae157829003601f168201915b505050505081526020016002820160009054906101000a900473ffffffffffffffffffffffffffffffffffffffff1673ffffffffffffffffffffffffffffffffffffffff1673ffffffffffffffffffffffffffffffffffffffff16815260200160038201548152602001600482015481526020016005820154815260200160068201805480602002602001604051908101604052809291908181526020018280548015610c0057602002820191906000526020600020905b8160009054906101000a900473ffffffffffffffffffffffffffffffffffffffff1673ffffffffffffffffffffffffffffffffffffffff1681526020019060010190808311610bb6575b5050505050815260200160078201805480602002602001604051908101604052809291908181526020018280548015610c8e57602002820191906000526020600020905b8160009054906101000a900473ffffffffffffffffffffffffffffffffffffffff1673ffffffffffffffffffffffffffffffffffffffff1681526020019060010190808311610c44575b505050505081526020016008820160009054906101000a900460ff161515151581525050905080610100015115610cfa576040517f08c379a0000000000000000000000000000000000000000000000000000000008152600401610cf190611fd5565b60405180910390fd5b62093a808160600151610d0d9190611ff5565b421015610d4f576040517f08c379a0000000000000000000000000000000000000000000000000000000008152600401610d46906120bd565b60405180910390fd5b806040015173ffffffffffffffffffffffffffffffffffffffff163373ffffffffffffffffffffffffffffffffffffffff1614610dc1576040517f08c379a0000000000000000000000000000000000000000000000000000000008152600401610db890612129565b60405180910390fd5b60008160e00151518260c0015151610dd99190612149565b90506000826080015182610ded919061217d565b905060018361010001901515908115158152505060003373ffffffffffffffffffffffffffffffffffffffff1682604051610e2790611e52565b60006040518083038185875af1925050503d8060008114610e64576040519150601f19603f3d011682016040523d82523d6000602084013e610e69565b606091505b5050905080610e7f576000151584610100015150505b80610ebf576040517f08c379a0000000000000000000000000000000000000000000000000000000008152600401610eb690611ee2565b60405180910390fd5b7f393073ea1365f611c3d2f240c992960d2b99dc81715555d3fc40fc55ba80af9c85604051610eee91906121d7565b60405180910390a15050505050565b6000602052806000526040600020600091509050806000015490806001018054610f2690611f31565b80601f0160208091040260200160405190810160405280929190818152602001828054610f5290611f31565b8015610f9f5780601f10610f7457610100808354040283529160200191610f9f565b820191906000526020600020905b815481529060010190602001808311610f8257829003601f168201915b5050505050908060020160009054906101000a900473ffffffffffffffffffffffffffffffffffffffff16908060030154908060040154908060050154908060080160009054906101000a900460ff16905087565b6000806000838152602001908152602001600020604051806101200160405290816000820154815260200160018201805461102e90611f31565b80601f016020809104026020016040519081016040528092919081815260200182805461105a90611f31565b80156110a75780601f1061107c576101008083540402835291602001916110a7565b820191906000526020600020905b81548152906001019060200180831161108a57829003601f168201915b505050505081526020016002820160009054906101000a900473ffffffffffffffffffffffffffffffffffffffff1673ffffffffffffffffffffffffffffffffffffffff1673ffffffffffffffffffffffffffffffffffffffff168152602001600382015481526020016004820154815260200160058201548152602001600682018054806020026020016040519081016040528092919081815260200182805480156111a957602002820191906000526020600020905b8160009054906101000a900473ffffffffffffffffffffffffffffffffffffffff1673ffffffffffffffffffffffffffffffffffffffff168152602001906001019080831161115f575b505050505081526020016007820180548060200260200160405190810160405280929190818152602001828054801561123757602002820191906000526020600020905b8160009054906101000a900473ffffffffffffffffffffffffffffffffffffffff1673ffffffffffffffffffffffffffffffffffffffff16815260200190600101908083116111ed575b505050505081526020016008820160009054906101000a900460ff1615151515815250509050806040015173ffffffffffffffffffffffffffffffffffffffff163373ffffffffffffffffffffffffffffffffffffffff16146112cf576040517f08c379a00000000000000000000000000000000000000000000000000000000081526004016112c690612264565b60405180910390fd5b60005b8160c00151518160ff1610156113205761130d838360c001518360ff1681518110611300576112ff611aaf565b5b60200260200101516105e5565b808061131890611bac565b9150506112d2565b505050565b82805461133190611f31565b90600052602060002090601f016020900481019282611353576000855561139a565b82601f1061136c57805160ff191683800117855561139a565b8280016001018555821561139a579182015b8281111561139957825182559160200191906001019061137e565b5b5090506113a79190611435565b5090565b828054828255906000526020600020908101928215611424579160200282015b828111156114235782518260006101000a81548173ffffffffffffffffffffffffffffffffffffffff021916908373ffffffffffffffffffffffffffffffffffffffff160217905550916020019190600101906113cb565b5b5090506114319190611435565b5090565b5b8082111561144e576000816000905550600101611436565b5090565b600080fd5b600080fd5b6000819050919050565b61146f8161145c565b811461147a57600080fd5b50565b60008135905061148c81611466565b92915050565b600080fd5b600080fd5b600080fd5b60008083601f8401126114b7576114b6611492565b5b8235905067ffffffffffffffff8111156114d4576114d3611497565b5b6020830191508360018202830111156114f0576114ef61149c565b5b9250929050565b60008060008060006080868803121561151357611512611452565b5b60006115218882890161147d565b95505060206115328882890161147d565b94505060406115438882890161147d565b935050606086013567ffffffffffffffff81111561156457611563611457565b5b611570888289016114a1565b92509250509295509295909350565b6000819050919050565b6115928161157f565b811461159d57600080fd5b50565b6000813590506115af81611589565b92915050565b6000602082840312156115cb576115ca611452565b5b60006115d9848285016115a0565b91505092915050565b600073ffffffffffffffffffffffffffffffffffffffff82169050919050565b600061160d826115e2565b9050919050565b61161d81611602565b811461162857600080fd5b50565b60008135905061163a81611614565b92915050565b6000806040838503121561165757611656611452565b5b6000611665858286016115a0565b92505060206116768582860161162b565b9150509250929050565b6116898161157f565b82525050565b600081519050919050565b600082825260208201905092915050565b60005b838110156116c95780820151818401526020810190506116ae565b838111156116d8576000848401525b50505050565b6000601f19601f8301169050919050565b60006116fa8261168f565b611704818561169a565b93506117148185602086016116ab565b61171d816116de565b840191505092915050565b61173181611602565b82525050565b6117408161145c565b82525050565b60008115159050919050565b61175b81611746565b82525050565b600060e082019050611776600083018a611680565b818103602083015261178881896116ef565b90506117976040830188611728565b6117a46060830187611737565b6117b16080830186611737565b6117be60a0830185611737565b6117cb60c0830184611752565b98975050505050505050565b60008160601b9050919050565b60006117ef826117d7565b9050919050565b6000611801826117e4565b9050919050565b61181961181482611602565b6117f6565b82525050565b6000819050919050565b61183a6118358261145c565b61181f565b82525050565b600061184c8288611808565b60148201915061185c8287611808565b60148201915061186c8286611829565b60208201915061187c8285611829565b60208201915061188c8284611829565b6020820191508190509695505050505050565b82818337600083830152505050565b60006118ba838561169a565b93506118c783858461189f565b6118d0836116de565b840190509392505050565b600060c0820190506118f0600083018a611680565b6118fd6020830189611728565b61190a6040830188611737565b6119176060830187611737565b6119246080830186611737565b81810360a08301526119378184866118ae565b905098975050505050505050565b7f4e6f7420656e6f75676820636f696e732073656e740000000000000000000000600082015250565b600061197b60158361169a565b915061198682611945565b602082019050919050565b600060208201905081810360008301526119aa8161196e565b9050919050565b7f546865206576656e7420737461727420646174652068617320616c726561647960008201527f2070617373656400000000000000000000000000000000000000000000000000602082015250565b6000611a0d60278361169a565b9150611a18826119b1565b604082019050919050565b60006020820190508181036000830152611a3c81611a00565b9050919050565b7f54686973206576656e7420697320616c72656164792066756c6c000000000000600082015250565b6000611a79601a8361169a565b9150611a8482611a43565b602082019050919050565b60006020820190508181036000830152611aa881611a6c565b9050919050565b7f4e487b7100000000000000000000000000000000000000000000000000000000600052603260045260246000fd5b7f596f752061726520616c726561647920617474656e64696e672074686973206560008201527f76656e7400000000000000000000000000000000000000000000000000000000602082015250565b6000611b3a60248361169a565b9150611b4582611ade565b604082019050919050565b60006020820190508181036000830152611b6981611b2d565b9050919050565b7f4e487b7100000000000000000000000000000000000000000000000000000000600052601160045260246000fd5b600060ff82169050919050565b6000611bb782611b9f565b915060ff821415611bcb57611bca611b70565b5b600182019050919050565b6000604082019050611beb6000830185611680565b611bf86020830184611728565b9392505050565b7f4f6e6c7920746865206f776e65722063616e20636f6e6669726d20616e20617460008201527f74656e6465650000000000000000000000000000000000000000000000000000602082015250565b6000611c5b60268361169a565b9150611c6682611bff565b604082019050919050565b60006020820190508181036000830152611c8a81611c4e565b9050919050565b7f546869732061646472657373206973206e6f742072656769737465726564206660008201527f6f722074686973206576656e7400000000000000000000000000000000000000602082015250565b6000611ced602d8361169a565b9150611cf882611c91565b604082019050919050565b60006020820190508181036000830152611d1c81611ce0565b9050919050565b7f5468697320617474656e64656520616c726561647920636c61696d656420697460008201527f7320636f696e7300000000000000000000000000000000000000000000000000602082015250565b6000611d7f60278361169a565b9150611d8a82611d23565b604082019050919050565b60006020820190508181036000830152611dae81611d72565b9050919050565b7f4f776e657220616c726561647920636c61696d6564206465706f736974730000600082015250565b6000611deb601e8361169a565b9150611df682611db5565b602082019050919050565b60006020820190508181036000830152611e1a81611dde565b9050919050565b600081905092915050565b50565b6000611e3c600083611e21565b9150611e4782611e2c565b600082019050919050565b6000611e5d82611e2f565b9150819050919050565b7f4e487b7100000000000000000000000000000000000000000000000000000000600052603160045260246000fd5b7f4661696c656420746f2073656e64204574686572000000000000000000000000600082015250565b6000611ecc60148361169a565b9150611ed782611e96565b602082019050919050565b60006020820190508181036000830152611efb81611ebf565b9050919050565b7f4e487b7100000000000000000000000000000000000000000000000000000000600052602260045260246000fd5b60006002820490506001821680611f4957607f821691505b60208210811415611f5d57611f5c611f02565b5b50919050565b7f4d6f6e657920616c726561647920776974686472617720666f7220746869732060008201527f6576656e74000000000000000000000000000000000000000000000000000000602082015250565b6000611fbf60258361169a565b9150611fca82611f63565b604082019050919050565b60006020820190508181036000830152611fee81611fb2565b9050919050565b60006120008261145c565b915061200b8361145c565b9250827fffffffffffffffffffffffffffffffffffffffffffffffffffffffffffffffff038211156120405761203f611b70565b5b828201905092915050565b7f596f75206e65656420746f20776169742037206461797320746f20776974686460008201527f72617720756e636c61696d6564206465706f7369747300000000000000000000602082015250565b60006120a760368361169a565b91506120b28261204b565b604082019050919050565b600060208201905081810360008301526120d68161209a565b9050919050565b7f4f6e6c7920746865206f776e65722063616e2077697468647261770000000000600082015250565b6000612113601b8361169a565b915061211e826120dd565b602082019050919050565b6000602082019050818103600083015261214281612106565b9050919050565b60006121548261145c565b915061215f8361145c565b92508282101561217257612171611b70565b5b828203905092915050565b60006121888261145c565b91506121938361145c565b9250817fffffffffffffffffffffffffffffffffffffffffffffffffffffffffffffffff04831182151516156121cc576121cb611b70565b5b828202905092915050565b60006020820190506121ec6000830184611680565b92915050565b7f4f6e6c7920746865206f776e65722063616e20636f6e6669726d20617474656e60008201527f6465657300000000000000000000000000000000000000000000000000000000602082015250565b600061224e60248361169a565b9150612259826121f2565b604082019050919050565b6000602082019050818103600083015261227d81612241565b905091905056fea2646970667358221220c1d9f4fe76525c3a298745ee26c218ce7bd1af077c13503c8f9b660adee248c064736f6c63430008090033",
  "linkReferences": {},
  "deployedLinkReferences": {}
}